{
    "contractName": "MyNFT",
    "abi": [
        {
            "inputs": [
                {
                    "internalType": "uint256",
                    "name": "mintingPrice",
                    "type": "uint256"
                },
                {
                    "internalType": "string",
                    "name": "baseTokenURI",
                    "type": "string"
                }
            ],
            "stateMutability": "nonpayable",
            "type": "constructor"
        },
        {
            "anonymous": false,
            "inputs": [
                {
                    "indexed": true,
                    "internalType": "address",
                    "name": "owner",
                    "type": "address"
                },
                {
                    "indexed": true,
                    "internalType": "address",
                    "name": "approved",
                    "type": "address"
                },
                {
                    "indexed": true,
                    "internalType": "uint256",
                    "name": "tokenId",
                    "type": "uint256"
                }
            ],
            "name": "Approval",
            "type": "event"
        },
        {
            "anonymous": false,
            "inputs": [
                {
                    "indexed": true,
                    "internalType": "address",
                    "name": "owner",
                    "type": "address"
                },
                {
                    "indexed": true,
                    "internalType": "address",
                    "name": "operator",
                    "type": "address"
                },
                {
                    "indexed": false,
                    "internalType": "bool",
                    "name": "approved",
                    "type": "bool"
                }
            ],
            "name": "ApprovalForAll",
            "type": "event"
        },
        {
            "anonymous": false,
            "inputs": [
                {
                    "indexed": true,
                    "internalType": "address",
                    "name": "previousOwner",
                    "type": "address"
                },
                {
                    "indexed": true,
                    "internalType": "address",
                    "name": "newOwner",
                    "type": "address"
                }
            ],
            "name": "OwnershipTransferred",
            "type": "event"
        },
        {
            "anonymous": false,
            "inputs": [
                {
                    "indexed": true,
                    "internalType": "address",
                    "name": "from",
                    "type": "address"
                },
                {
                    "indexed": true,
                    "internalType": "address",
                    "name": "to",
                    "type": "address"
                },
                {
                    "indexed": true,
                    "internalType": "uint256",
                    "name": "tokenId",
                    "type": "uint256"
                }
            ],
            "name": "Transfer",
            "type": "event"
        },
        {
            "inputs": [
                {
                    "internalType": "address",
                    "name": "to",
                    "type": "address"
                },
                {
                    "internalType": "uint256",
                    "name": "tokenId",
                    "type": "uint256"
                }
            ],
            "name": "approve",
            "outputs": [],
            "stateMutability": "nonpayable",
            "type": "function"
        },
        {
            "inputs": [
                {
                    "internalType": "address",
                    "name": "owner",
                    "type": "address"
                }
            ],
            "name": "balanceOf",
            "outputs": [
                {
                    "internalType": "uint256",
                    "name": "",
                    "type": "uint256"
                }
            ],
            "stateMutability": "view",
            "type": "function",
            "constant": true
        },
        {
            "inputs": [
                {
                    "internalType": "uint256",
                    "name": "tokenId",
                    "type": "uint256"
                }
            ],
            "name": "getApproved",
            "outputs": [
                {
                    "internalType": "address",
                    "name": "",
                    "type": "address"
                }
            ],
            "stateMutability": "view",
            "type": "function",
            "constant": true
        },
        {
            "inputs": [
                {
                    "internalType": "address",
                    "name": "owner",
                    "type": "address"
                },
                {
                    "internalType": "address",
                    "name": "operator",
                    "type": "address"
                }
            ],
            "name": "isApprovedForAll",
            "outputs": [
                {
                    "internalType": "bool",
                    "name": "",
                    "type": "bool"
                }
            ],
            "stateMutability": "view",
            "type": "function",
            "constant": true
        },
        {
            "inputs": [],
            "name": "name",
            "outputs": [
                {
                    "internalType": "string",
                    "name": "",
                    "type": "string"
                }
            ],
            "stateMutability": "view",
            "type": "function",
            "constant": true
        },
        {
            "inputs": [],
            "name": "owner",
            "outputs": [
                {
                    "internalType": "address",
                    "name": "",
                    "type": "address"
                }
            ],
            "stateMutability": "view",
            "type": "function",
            "constant": true
        },
        {
            "inputs": [
                {
                    "internalType": "uint256",
                    "name": "tokenId",
                    "type": "uint256"
                }
            ],
            "name": "ownerOf",
            "outputs": [
                {
                    "internalType": "address",
                    "name": "",
                    "type": "address"
                }
            ],
            "stateMutability": "view",
            "type": "function",
            "constant": true
        },
        {
            "inputs": [],
            "name": "renounceOwnership",
            "outputs": [],
            "stateMutability": "nonpayable",
            "type": "function"
        },
        {
            "inputs": [
                {
                    "internalType": "address",
                    "name": "from",
                    "type": "address"
                },
                {
                    "internalType": "address",
                    "name": "to",
                    "type": "address"
                },
                {
                    "internalType": "uint256",
                    "name": "tokenId",
                    "type": "uint256"
                }
            ],
            "name": "safeTransferFrom",
            "outputs": [],
            "stateMutability": "nonpayable",
            "type": "function"
        },
        {
            "inputs": [
                {
                    "internalType": "address",
                    "name": "from",
                    "type": "address"
                },
                {
                    "internalType": "address",
                    "name": "to",
                    "type": "address"
                },
                {
                    "internalType": "uint256",
                    "name": "tokenId",
                    "type": "uint256"
                },
                {
                    "internalType": "bytes",
                    "name": "data",
                    "type": "bytes"
                }
            ],
            "name": "safeTransferFrom",
            "outputs": [],
            "stateMutability": "nonpayable",
            "type": "function"
        },
        {
            "inputs": [
                {
                    "internalType": "address",
                    "name": "operator",
                    "type": "address"
                },
                {
                    "internalType": "bool",
                    "name": "approved",
                    "type": "bool"
                }
            ],
            "name": "setApprovalForAll",
            "outputs": [],
            "stateMutability": "nonpayable",
            "type": "function"
        },
        {
            "inputs": [
                {
                    "internalType": "bytes4",
                    "name": "interfaceId",
                    "type": "bytes4"
                }
            ],
            "name": "supportsInterface",
            "outputs": [
                {
                    "internalType": "bool",
                    "name": "",
                    "type": "bool"
                }
            ],
            "stateMutability": "view",
            "type": "function",
            "constant": true
        },
        {
            "inputs": [],
            "name": "symbol",
            "outputs": [
                {
                    "internalType": "string",
                    "name": "",
                    "type": "string"
                }
            ],
            "stateMutability": "view",
            "type": "function",
            "constant": true
        },
        {
            "inputs": [
                {
                    "internalType": "uint256",
                    "name": "tokenId",
                    "type": "uint256"
                }
            ],
            "name": "tokenURI",
            "outputs": [
                {
                    "internalType": "string",
                    "name": "",
                    "type": "string"
                }
            ],
            "stateMutability": "view",
            "type": "function",
            "constant": true
        },
        {
            "inputs": [
                {
                    "internalType": "address",
                    "name": "from",
                    "type": "address"
                },
                {
                    "internalType": "address",
                    "name": "to",
                    "type": "address"
                },
                {
                    "internalType": "uint256",
                    "name": "tokenId",
                    "type": "uint256"
                }
            ],
            "name": "transferFrom",
            "outputs": [],
            "stateMutability": "nonpayable",
            "type": "function"
        },
        {
            "inputs": [
                {
                    "internalType": "address",
                    "name": "newOwner",
                    "type": "address"
                }
            ],
            "name": "transferOwnership",
            "outputs": [],
            "stateMutability": "nonpayable",
            "type": "function"
        },
        {
            "inputs": [
                {
                    "internalType": "address",
                    "name": "recipient",
                    "type": "address"
                }
            ],
            "name": "mintNFT",
            "outputs": [
                {
                    "internalType": "uint256",
                    "name": "",
                    "type": "uint256"
                }
            ],
            "stateMutability": "payable",
            "type": "function",
            "payable": true
        },
        {
            "inputs": [],
            "name": "getMintingPrice",
            "outputs": [
                {
                    "internalType": "uint256",
                    "name": "",
                    "type": "uint256"
                }
            ],
            "stateMutability": "view",
            "type": "function",
            "constant": true
        },
        {
            "inputs": [
                {
                    "internalType": "uint256",
                    "name": "newPrice",
                    "type": "uint256"
                }
            ],
            "name": "setMintingPrice",
            "outputs": [],
            "stateMutability": "nonpayable",
            "type": "function"
        },
        {
            "inputs": [
                {
                    "internalType": "string",
                    "name": "baseTokenURI",
                    "type": "string"
                }
            ],
            "name": "setBaseTokenURI",
            "outputs": [],
            "stateMutability": "nonpayable",
            "type": "function"
        },
        {
            "inputs": [],
            "name": "withdraw",
            "outputs": [],
            "stateMutability": "nonpayable",
            "type": "function"
        }
    ],
    "bytecode": "0x60806040523480156200001157600080fd5b50604051620036c5380380620036c58339818101604052810190620000379190620003a6565b6040518060400160405280600581526020017f4d794e46540000000000000000000000000000000000000000000000000000008152506040518060400160405280600481526020017f4d4e4654000000000000000000000000000000000000000000000000000000008152508160009081620000b491906200064d565b508060019081620000c691906200064d565b505050620000e9620000dd6200010a60201b60201c565b6200011260201b60201c565b8160088190555080600990816200010191906200064d565b50505062000734565b600033905090565b6000600660009054906101000a900473ffffffffffffffffffffffffffffffffffffffff16905081600660006101000a81548173ffffffffffffffffffffffffffffffffffffffff021916908373ffffffffffffffffffffffffffffffffffffffff1602179055508173ffffffffffffffffffffffffffffffffffffffff168173ffffffffffffffffffffffffffffffffffffffff167f8be0079c531659141344cd1fd0a4f28419497f9722a3daafe3b4186f6b6457e060405160405180910390a35050565b6000604051905090565b600080fd5b600080fd5b6000819050919050565b6200020181620001ec565b81146200020d57600080fd5b50565b6000815190506200022181620001f6565b92915050565b600080fd5b600080fd5b6000601f19601f8301169050919050565b7f4e487b7100000000000000000000000000000000000000000000000000000000600052604160045260246000fd5b6200027c8262000231565b810181811067ffffffffffffffff821117156200029e576200029d62000242565b5b80604052505050565b6000620002b3620001d8565b9050620002c1828262000271565b919050565b600067ffffffffffffffff821115620002e457620002e362000242565b5b620002ef8262000231565b9050602081019050919050565b60005b838110156200031c578082015181840152602081019050620002ff565b60008484015250505050565b60006200033f6200033984620002c6565b620002a7565b9050828152602081018484840111156200035e576200035d6200022c565b5b6200036b848285620002fc565b509392505050565b600082601f8301126200038b576200038a62000227565b5b81516200039d84826020860162000328565b91505092915050565b60008060408385031215620003c057620003bf620001e2565b5b6000620003d08582860162000210565b925050602083015167ffffffffffffffff811115620003f457620003f3620001e7565b5b620004028582860162000373565b9150509250929050565b600081519050919050565b7f4e487b7100000000000000000000000000000000000000000000000000000000600052602260045260246000fd5b600060028204905060018216806200045f57607f821691505b60208210810362000475576200047462000417565b5b50919050565b60008190508160005260206000209050919050565b60006020601f8301049050919050565b600082821b905092915050565b600060088302620004df7fffffffffffffffffffffffffffffffffffffffffffffffffffffffffffffffff82620004a0565b620004eb8683620004a0565b95508019841693508086168417925050509392505050565b6000819050919050565b60006200052e620005286200052284620001ec565b62000503565b620001ec565b9050919050565b6000819050919050565b6200054a836200050d565b62000562620005598262000535565b848454620004ad565b825550505050565b600090565b620005796200056a565b620005868184846200053f565b505050565b5b81811015620005ae57620005a26000826200056f565b6001810190506200058c565b5050565b601f821115620005fd57620005c7816200047b565b620005d28462000490565b81016020851015620005e2578190505b620005fa620005f18562000490565b8301826200058b565b50505b505050565b600082821c905092915050565b6000620006226000198460080262000602565b1980831691505092915050565b60006200063d83836200060f565b9150826002028217905092915050565b62000658826200040c565b67ffffffffffffffff81111562000674576200067362000242565b5b62000680825462000446565b6200068d828285620005b2565b600060209050601f831160018114620006c55760008415620006b0578287015190505b620006bc85826200062f565b8655506200072c565b601f198416620006d5866200047b565b60005b82811015620006ff57848901518255600182019150602085019450602081019050620006d8565b868310156200071f57848901516200071b601f8916826200060f565b8355505b6001600288020188555050505b505050505050565b612f8180620007446000396000f3fe60806040526004361061012a5760003560e01c806370a08231116100ab57806395d89b411161006f57806395d89b41146103cf578063a22cb465146103fa578063b88d4fde14610423578063c87b56dd1461044c578063e985e9c514610489578063f2fde38b146104c65761012a565b806370a08231146102fc578063715018a61461033957806377d24762146103505780638417b47f1461037b5780638da5cb5b146103a45761012a565b806330176e13116100f257806330176e13146102265780633ccfd60b1461024f57806342842e0e1461026657806354ba0f271461028f5780636352211e146102bf5761012a565b806301ffc9a71461012f57806306fdde031461016c578063081812fc14610197578063095ea7b3146101d457806323b872dd146101fd575b600080fd5b34801561013b57600080fd5b5061015660048036038101906101519190611d48565b6104ef565b6040516101639190611d90565b60405180910390f35b34801561017857600080fd5b506101816105d1565b60405161018e9190611e3b565b60405180910390f35b3480156101a357600080fd5b506101be60048036038101906101b99190611e93565b610663565b6040516101cb9190611f01565b60405180910390f35b3480156101e057600080fd5b506101fb60048036038101906101f69190611f48565b6106a9565b005b34801561020957600080fd5b50610224600480360381019061021f9190611f88565b6107c0565b005b34801561023257600080fd5b5061024d60048036038101906102489190612110565b610820565b005b34801561025b57600080fd5b5061026461083b565b005b34801561027257600080fd5b5061028d60048036038101906102889190611f88565b610893565b005b6102a960048036038101906102a49190612159565b6108b3565b6040516102b69190612195565b60405180910390f35b3480156102cb57600080fd5b506102e660048036038101906102e19190611e93565b610984565b6040516102f39190611f01565b60405180910390f35b34801561030857600080fd5b50610323600480360381019061031e9190612159565b610a0a565b6040516103309190612195565b60405180910390f35b34801561034557600080fd5b5061034e610ac1565b005b34801561035c57600080fd5b50610365610ad5565b6040516103729190612195565b60405180910390f35b34801561038757600080fd5b506103a2600480360381019061039d9190611e93565b610adf565b005b3480156103b057600080fd5b506103b9610af1565b6040516103c69190611f01565b60405180910390f35b3480156103db57600080fd5b506103e4610b1b565b6040516103f19190611e3b565b60405180910390f35b34801561040657600080fd5b50610421600480360381019061041c91906121dc565b610bad565b005b34801561042f57600080fd5b5061044a600480360381019061044591906122bd565b610bc3565b005b34801561045857600080fd5b50610473600480360381019061046e9190611e93565b610c25565b6040516104809190611e3b565b60405180910390f35b34801561049557600080fd5b506104b060048036038101906104ab9190612340565b610c8d565b6040516104bd9190611d90565b60405180910390f35b3480156104d257600080fd5b506104ed60048036038101906104e89190612159565b610d21565b005b60007f80ac58cd000000000000000000000000000000000000000000000000000000007bffffffffffffffffffffffffffffffffffffffffffffffffffffffff1916827bffffffffffffffffffffffffffffffffffffffffffffffffffffffff191614806105ba57507f5b5e139f000000000000000000000000000000000000000000000000000000007bffffffffffffffffffffffffffffffffffffffffffffffffffffffff1916827bffffffffffffffffffffffffffffffffffffffffffffffffffffffff1916145b806105ca57506105c982610da4565b5b9050919050565b6060600080546105e0906123af565b80601f016020809104026020016040519081016040528092919081815260200182805461060c906123af565b80156106595780601f1061062e57610100808354040283529160200191610659565b820191906000526020600020905b81548152906001019060200180831161063c57829003601f168201915b5050505050905090565b600061066e82610e0e565b6004600083815260200190815260200160002060009054906101000a900473ffffffffffffffffffffffffffffffffffffffff169050919050565b60006106b482610984565b90508073ffffffffffffffffffffffffffffffffffffffff168373ffffffffffffffffffffffffffffffffffffffff1603610724576040517f08c379a000000000000000000000000000000000000000000000000000000000815260040161071b90612452565b60405180910390fd5b8073ffffffffffffffffffffffffffffffffffffffff16610743610e59565b73ffffffffffffffffffffffffffffffffffffffff16148061077257506107718161076c610e59565b610c8d565b5b6107b1576040517f08c379a00000000000000000000000000000000000000000000000000000000081526004016107a8906124e4565b60405180910390fd5b6107bb8383610e61565b505050565b6107d16107cb610e59565b82610f1a565b610810576040517f08c379a000000000000000000000000000000000000000000000000000000000815260040161080790612576565b60405180910390fd5b61081b838383610faf565b505050565b6108286112a8565b80600990816108379190612742565b5050565b6108436112a8565b61084b610af1565b73ffffffffffffffffffffffffffffffffffffffff166108fc479081150290604051600060405180830381858888f19350505050158015610890573d6000803e3d6000fd5b50565b6108ae83838360405180602001604052806000815250610bc3565b505050565b60006008543410156108fa576040517f08c379a00000000000000000000000000000000000000000000000000000000081526004016108f190612860565b60405180910390fd5b6109046007611326565b6000610910600761133c565b905061091c838261134a565b60085434111561097b573373ffffffffffffffffffffffffffffffffffffffff166108fc6008543461094e91906128af565b9081150290604051600060405180830381858888f19350505050158015610979573d6000803e3d6000fd5b505b80915050919050565b60008061099083611567565b9050600073ffffffffffffffffffffffffffffffffffffffff168173ffffffffffffffffffffffffffffffffffffffff1603610a01576040517f08c379a00000000000000000000000000000000000000000000000000000000081526004016109f89061292f565b60405180910390fd5b80915050919050565b60008073ffffffffffffffffffffffffffffffffffffffff168273ffffffffffffffffffffffffffffffffffffffff1603610a7a576040517f08c379a0000000000000000000000000000000000000000000000000000000008152600401610a71906129c1565b60405180910390fd5b600360008373ffffffffffffffffffffffffffffffffffffffff1673ffffffffffffffffffffffffffffffffffffffff168152602001908152602001600020549050919050565b610ac96112a8565b610ad360006115a4565b565b6000600854905090565b610ae76112a8565b8060088190555050565b6000600660009054906101000a900473ffffffffffffffffffffffffffffffffffffffff16905090565b606060018054610b2a906123af565b80601f0160208091040260200160405190810160405280929190818152602001828054610b56906123af565b8015610ba35780601f10610b7857610100808354040283529160200191610ba3565b820191906000526020600020905b815481529060010190602001808311610b8657829003601f168201915b5050505050905090565b610bbf610bb8610e59565b838361166a565b5050565b610bd4610bce610e59565b83610f1a565b610c13576040517f08c379a0000000000000000000000000000000000000000000000000000000008152600401610c0a90612576565b60405180910390fd5b610c1f848484846117d6565b50505050565b6060610c3082610e0e565b6000610c3a611832565b90506000815111610c5a5760405180602001604052806000815250610c85565b80610c64846118c4565b604051602001610c75929190612a1d565b6040516020818303038152906040525b915050919050565b6000600560008473ffffffffffffffffffffffffffffffffffffffff1673ffffffffffffffffffffffffffffffffffffffff16815260200190815260200160002060008373ffffffffffffffffffffffffffffffffffffffff1673ffffffffffffffffffffffffffffffffffffffff16815260200190815260200160002060009054906101000a900460ff16905092915050565b610d296112a8565b600073ffffffffffffffffffffffffffffffffffffffff168173ffffffffffffffffffffffffffffffffffffffff1603610d98576040517f08c379a0000000000000000000000000000000000000000000000000000000008152600401610d8f90612ab3565b60405180910390fd5b610da1816115a4565b50565b60007f01ffc9a7000000000000000000000000000000000000000000000000000000007bffffffffffffffffffffffffffffffffffffffffffffffffffffffff1916827bffffffffffffffffffffffffffffffffffffffffffffffffffffffff1916149050919050565b610e1781611992565b610e56576040517f08c379a0000000000000000000000000000000000000000000000000000000008152600401610e4d9061292f565b60405180910390fd5b50565b600033905090565b816004600083815260200190815260200160002060006101000a81548173ffffffffffffffffffffffffffffffffffffffff021916908373ffffffffffffffffffffffffffffffffffffffff160217905550808273ffffffffffffffffffffffffffffffffffffffff16610ed483610984565b73ffffffffffffffffffffffffffffffffffffffff167f8c5be1e5ebec7d5bd14f71427d1e84f3dd0314c0f7b2291e5b200ac8c7c3b92560405160405180910390a45050565b600080610f2683610984565b90508073ffffffffffffffffffffffffffffffffffffffff168473ffffffffffffffffffffffffffffffffffffffff161480610f685750610f678185610c8d565b5b80610fa657508373ffffffffffffffffffffffffffffffffffffffff16610f8e84610663565b73ffffffffffffffffffffffffffffffffffffffff16145b91505092915050565b8273ffffffffffffffffffffffffffffffffffffffff16610fcf82610984565b73ffffffffffffffffffffffffffffffffffffffff1614611025576040517f08c379a000000000000000000000000000000000000000000000000000000000815260040161101c90612b45565b60405180910390fd5b600073ffffffffffffffffffffffffffffffffffffffff168273ffffffffffffffffffffffffffffffffffffffff1603611094576040517f08c379a000000000000000000000000000000000000000000000000000000000815260040161108b90612bd7565b60405180910390fd5b6110a183838360016119d3565b8273ffffffffffffffffffffffffffffffffffffffff166110c182610984565b73ffffffffffffffffffffffffffffffffffffffff1614611117576040517f08c379a000000000000000000000000000000000000000000000000000000000815260040161110e90612b45565b60405180910390fd5b6004600082815260200190815260200160002060006101000a81549073ffffffffffffffffffffffffffffffffffffffff02191690556001600360008573ffffffffffffffffffffffffffffffffffffffff1673ffffffffffffffffffffffffffffffffffffffff168152602001908152602001600020600082825403925050819055506001600360008473ffffffffffffffffffffffffffffffffffffffff1673ffffffffffffffffffffffffffffffffffffffff16815260200190815260200160002060008282540192505081905550816002600083815260200190815260200160002060006101000a81548173ffffffffffffffffffffffffffffffffffffffff021916908373ffffffffffffffffffffffffffffffffffffffff160217905550808273ffffffffffffffffffffffffffffffffffffffff168473ffffffffffffffffffffffffffffffffffffffff167fddf252ad1be2c89b69c2b068fc378daa952ba7f163c4a11628f55a4df523b3ef60405160405180910390a46112a383838360016119d9565b505050565b6112b0610e59565b73ffffffffffffffffffffffffffffffffffffffff166112ce610af1565b73ffffffffffffffffffffffffffffffffffffffff1614611324576040517f08c379a000000000000000000000000000000000000000000000000000000000815260040161131b90612c43565b60405180910390fd5b565b6001816000016000828254019250508190555050565b600081600001549050919050565b600073ffffffffffffffffffffffffffffffffffffffff168273ffffffffffffffffffffffffffffffffffffffff16036113b9576040517f08c379a00000000000000000000000000000000000000000000000000000000081526004016113b090612caf565b60405180910390fd5b6113c281611992565b15611402576040517f08c379a00000000000000000000000000000000000000000000000000000000081526004016113f990612d1b565b60405180910390fd5b6114106000838360016119d3565b61141981611992565b15611459576040517f08c379a000000000000000000000000000000000000000000000000000000000815260040161145090612d1b565b60405180910390fd5b6001600360008473ffffffffffffffffffffffffffffffffffffffff1673ffffffffffffffffffffffffffffffffffffffff16815260200190815260200160002060008282540192505081905550816002600083815260200190815260200160002060006101000a81548173ffffffffffffffffffffffffffffffffffffffff021916908373ffffffffffffffffffffffffffffffffffffffff160217905550808273ffffffffffffffffffffffffffffffffffffffff16600073ffffffffffffffffffffffffffffffffffffffff167fddf252ad1be2c89b69c2b068fc378daa952ba7f163c4a11628f55a4df523b3ef60405160405180910390a46115636000838360016119d9565b5050565b60006002600083815260200190815260200160002060009054906101000a900473ffffffffffffffffffffffffffffffffffffffff169050919050565b6000600660009054906101000a900473ffffffffffffffffffffffffffffffffffffffff16905081600660006101000a81548173ffffffffffffffffffffffffffffffffffffffff021916908373ffffffffffffffffffffffffffffffffffffffff1602179055508173ffffffffffffffffffffffffffffffffffffffff168173ffffffffffffffffffffffffffffffffffffffff167f8be0079c531659141344cd1fd0a4f28419497f9722a3daafe3b4186f6b6457e060405160405180910390a35050565b8173ffffffffffffffffffffffffffffffffffffffff168373ffffffffffffffffffffffffffffffffffffffff16036116d8576040517f08c379a00000000000000000000000000000000000000000000000000000000081526004016116cf90612d87565b60405180910390fd5b80600560008573ffffffffffffffffffffffffffffffffffffffff1673ffffffffffffffffffffffffffffffffffffffff16815260200190815260200160002060008473ffffffffffffffffffffffffffffffffffffffff1673ffffffffffffffffffffffffffffffffffffffff16815260200190815260200160002060006101000a81548160ff0219169083151502179055508173ffffffffffffffffffffffffffffffffffffffff168373ffffffffffffffffffffffffffffffffffffffff167f17307eab39ab6107e8899845ad3d59bd9653f200f220920489ca2b5937696c31836040516117c99190611d90565b60405180910390a3505050565b6117e1848484610faf565b6117ed848484846119df565b61182c576040517f08c379a000000000000000000000000000000000000000000000000000000000815260040161182390612e19565b60405180910390fd5b50505050565b606060098054611841906123af565b80601f016020809104026020016040519081016040528092919081815260200182805461186d906123af565b80156118ba5780601f1061188f576101008083540402835291602001916118ba565b820191906000526020600020905b81548152906001019060200180831161189d57829003601f168201915b5050505050905090565b6060600060016118d384611b66565b01905060008167ffffffffffffffff8111156118f2576118f1611fe5565b5b6040519080825280601f01601f1916602001820160405280156119245781602001600182028036833780820191505090505b509050600082602001820190505b600115611987578080600190039150507f3031323334353637383961626364656600000000000000000000000000000000600a86061a8153600a858161197b5761197a612e39565b5b04945060008503611932575b819350505050919050565b60008073ffffffffffffffffffffffffffffffffffffffff166119b483611567565b73ffffffffffffffffffffffffffffffffffffffff1614159050919050565b50505050565b50505050565b6000611a008473ffffffffffffffffffffffffffffffffffffffff16611cb9565b15611b59578373ffffffffffffffffffffffffffffffffffffffff1663150b7a02611a29610e59565b8786866040518563ffffffff1660e01b8152600401611a4b9493929190612ebd565b6020604051808303816000875af1925050508015611a8757506040513d601f19601f82011682018060405250810190611a849190612f1e565b60015b611b09573d8060008114611ab7576040519150601f19603f3d011682016040523d82523d6000602084013e611abc565b606091505b506000815103611b01576040517f08c379a0000000000000000000000000000000000000000000000000000000008152600401611af890612e19565b60405180910390fd5b805181602001fd5b63150b7a0260e01b7bffffffffffffffffffffffffffffffffffffffffffffffffffffffff1916817bffffffffffffffffffffffffffffffffffffffffffffffffffffffff191614915050611b5e565b600190505b949350505050565b600080600090507a184f03e93ff9f4daa797ed6e38ed64bf6a1f0100000000000000008310611bc4577a184f03e93ff9f4daa797ed6e38ed64bf6a1f0100000000000000008381611bba57611bb9612e39565b5b0492506040810190505b6d04ee2d6d415b85acef81000000008310611c01576d04ee2d6d415b85acef81000000008381611bf757611bf6612e39565b5b0492506020810190505b662386f26fc100008310611c3057662386f26fc100008381611c2657611c25612e39565b5b0492506010810190505b6305f5e1008310611c59576305f5e1008381611c4f57611c4e612e39565b5b0492506008810190505b6127108310611c7e576127108381611c7457611c73612e39565b5b0492506004810190505b60648310611ca15760648381611c9757611c96612e39565b5b0492506002810190505b600a8310611cb0576001810190505b80915050919050565b6000808273ffffffffffffffffffffffffffffffffffffffff163b119050919050565b6000604051905090565b600080fd5b600080fd5b60007fffffffff0000000000000000000000000000000000000000000000000000000082169050919050565b611d2581611cf0565b8114611d3057600080fd5b50565b600081359050611d4281611d1c565b92915050565b600060208284031215611d5e57611d5d611ce6565b5b6000611d6c84828501611d33565b91505092915050565b60008115159050919050565b611d8a81611d75565b82525050565b6000602082019050611da56000830184611d81565b92915050565b600081519050919050565b600082825260208201905092915050565b60005b83811015611de5578082015181840152602081019050611dca565b60008484015250505050565b6000601f19601f8301169050919050565b6000611e0d82611dab565b611e178185611db6565b9350611e27818560208601611dc7565b611e3081611df1565b840191505092915050565b60006020820190508181036000830152611e558184611e02565b905092915050565b6000819050919050565b611e7081611e5d565b8114611e7b57600080fd5b50565b600081359050611e8d81611e67565b92915050565b600060208284031215611ea957611ea8611ce6565b5b6000611eb784828501611e7e565b91505092915050565b600073ffffffffffffffffffffffffffffffffffffffff82169050919050565b6000611eeb82611ec0565b9050919050565b611efb81611ee0565b82525050565b6000602082019050611f166000830184611ef2565b92915050565b611f2581611ee0565b8114611f3057600080fd5b50565b600081359050611f4281611f1c565b92915050565b60008060408385031215611f5f57611f5e611ce6565b5b6000611f6d85828601611f33565b9250506020611f7e85828601611e7e565b9150509250929050565b600080600060608486031215611fa157611fa0611ce6565b5b6000611faf86828701611f33565b9350506020611fc086828701611f33565b9250506040611fd186828701611e7e565b9150509250925092565b600080fd5b600080fd5b7f4e487b7100000000000000000000000000000000000000000000000000000000600052604160045260246000fd5b61201d82611df1565b810181811067ffffffffffffffff8211171561203c5761203b611fe5565b5b80604052505050565b600061204f611cdc565b905061205b8282612014565b919050565b600067ffffffffffffffff82111561207b5761207a611fe5565b5b61208482611df1565b9050602081019050919050565b82818337600083830152505050565b60006120b36120ae84612060565b612045565b9050828152602081018484840111156120cf576120ce611fe0565b5b6120da848285612091565b509392505050565b600082601f8301126120f7576120f6611fdb565b5b81356121078482602086016120a0565b91505092915050565b60006020828403121561212657612125611ce6565b5b600082013567ffffffffffffffff81111561214457612143611ceb565b5b612150848285016120e2565b91505092915050565b60006020828403121561216f5761216e611ce6565b5b600061217d84828501611f33565b91505092915050565b61218f81611e5d565b82525050565b60006020820190506121aa6000830184612186565b92915050565b6121b981611d75565b81146121c457600080fd5b50565b6000813590506121d6816121b0565b92915050565b600080604083850312156121f3576121f2611ce6565b5b600061220185828601611f33565b9250506020612212858286016121c7565b9150509250929050565b600067ffffffffffffffff82111561223757612236611fe5565b5b61224082611df1565b9050602081019050919050565b600061226061225b8461221c565b612045565b90508281526020810184848401111561227c5761227b611fe0565b5b612287848285612091565b509392505050565b600082601f8301126122a4576122a3611fdb565b5b81356122b484826020860161224d565b91505092915050565b600080600080608085870312156122d7576122d6611ce6565b5b60006122e587828801611f33565b94505060206122f687828801611f33565b935050604061230787828801611e7e565b925050606085013567ffffffffffffffff81111561232857612327611ceb565b5b6123348782880161228f565b91505092959194509250565b6000806040838503121561235757612356611ce6565b5b600061236585828601611f33565b925050602061237685828601611f33565b9150509250929050565b7f4e487b7100000000000000000000000000000000000000000000000000000000600052602260045260246000fd5b600060028204905060018216806123c757607f821691505b6020821081036123da576123d9612380565b5b50919050565b7f4552433732313a20617070726f76616c20746f2063757272656e74206f776e6560008201527f7200000000000000000000000000000000000000000000000000000000000000602082015250565b600061243c602183611db6565b9150612447826123e0565b604082019050919050565b6000602082019050818103600083015261246b8161242f565b9050919050565b7f4552433732313a20617070726f76652063616c6c6572206973206e6f7420746f60008201527f6b656e206f776e6572206f7220617070726f76656420666f7220616c6c000000602082015250565b60006124ce603d83611db6565b91506124d982612472565b604082019050919050565b600060208201905081810360008301526124fd816124c1565b9050919050565b7f4552433732313a2063616c6c6572206973206e6f7420746f6b656e206f776e6560008201527f72206f7220617070726f76656400000000000000000000000000000000000000602082015250565b6000612560602d83611db6565b915061256b82612504565b604082019050919050565b6000602082019050818103600083015261258f81612553565b9050919050565b60008190508160005260206000209050919050565b60006020601f8301049050919050565b600082821b905092915050565b6000600883026125f87fffffffffffffffffffffffffffffffffffffffffffffffffffffffffffffffff826125bb565b61260286836125bb565b95508019841693508086168417925050509392505050565b6000819050919050565b600061263f61263a61263584611e5d565b61261a565b611e5d565b9050919050565b6000819050919050565b61265983612624565b61266d61266582612646565b8484546125c8565b825550505050565b600090565b612682612675565b61268d818484612650565b505050565b5b818110156126b1576126a660008261267a565b600181019050612693565b5050565b601f8211156126f6576126c781612596565b6126d0846125ab565b810160208510156126df578190505b6126f36126eb856125ab565b830182612692565b50505b505050565b600082821c905092915050565b6000612719600019846008026126fb565b1980831691505092915050565b60006127328383612708565b9150826002028217905092915050565b61274b82611dab565b67ffffffffffffffff81111561276457612763611fe5565b5b61276e82546123af565b6127798282856126b5565b600060209050601f8311600181146127ac576000841561279a578287015190505b6127a48582612726565b86555061280c565b601f1984166127ba86612596565b60005b828110156127e2578489015182556001820191506020850194506020810190506127bd565b868310156127ff57848901516127fb601f891682612708565b8355505b6001600288020188555050505b505050505050565b7f496e73756666696369656e74207061796d656e7420666f72206d696e74696e67600082015250565b600061284a602083611db6565b915061285582612814565b602082019050919050565b600060208201905081810360008301526128798161283d565b9050919050565b7f4e487b7100000000000000000000000000000000000000000000000000000000600052601160045260246000fd5b60006128ba82611e5d565b91506128c583611e5d565b92508282039050818111156128dd576128dc612880565b5b92915050565b7f4552433732313a20696e76616c696420746f6b656e2049440000000000000000600082015250565b6000612919601883611db6565b9150612924826128e3565b602082019050919050565b600060208201905081810360008301526129488161290c565b9050919050565b7f4552433732313a2061646472657373207a65726f206973206e6f74206120766160008201527f6c6964206f776e65720000000000000000000000000000000000000000000000602082015250565b60006129ab602983611db6565b91506129b68261294f565b604082019050919050565b600060208201905081810360008301526129da8161299e565b9050919050565b600081905092915050565b60006129f782611dab565b612a0181856129e1565b9350612a11818560208601611dc7565b80840191505092915050565b6000612a2982856129ec565b9150612a3582846129ec565b91508190509392505050565b7f4f776e61626c653a206e6577206f776e657220697320746865207a65726f206160008201527f6464726573730000000000000000000000000000000000000000000000000000602082015250565b6000612a9d602683611db6565b9150612aa882612a41565b604082019050919050565b60006020820190508181036000830152612acc81612a90565b9050919050565b7f4552433732313a207472616e736665722066726f6d20696e636f72726563742060008201527f6f776e6572000000000000000000000000000000000000000000000000000000602082015250565b6000612b2f602583611db6565b9150612b3a82612ad3565b604082019050919050565b60006020820190508181036000830152612b5e81612b22565b9050919050565b7f4552433732313a207472616e7366657220746f20746865207a65726f2061646460008201527f7265737300000000000000000000000000000000000000000000000000000000602082015250565b6000612bc1602483611db6565b9150612bcc82612b65565b604082019050919050565b60006020820190508181036000830152612bf081612bb4565b9050919050565b7f4f776e61626c653a2063616c6c6572206973206e6f7420746865206f776e6572600082015250565b6000612c2d602083611db6565b9150612c3882612bf7565b602082019050919050565b60006020820190508181036000830152612c5c81612c20565b9050919050565b7f4552433732313a206d696e7420746f20746865207a65726f2061646472657373600082015250565b6000612c99602083611db6565b9150612ca482612c63565b602082019050919050565b60006020820190508181036000830152612cc881612c8c565b9050919050565b7f4552433732313a20746f6b656e20616c7265616479206d696e74656400000000600082015250565b6000612d05601c83611db6565b9150612d1082612ccf565b602082019050919050565b60006020820190508181036000830152612d3481612cf8565b9050919050565b7f4552433732313a20617070726f766520746f2063616c6c657200000000000000600082015250565b6000612d71601983611db6565b9150612d7c82612d3b565b602082019050919050565b60006020820190508181036000830152612da081612d64565b9050919050565b7f4552433732313a207472616e7366657220746f206e6f6e20455243373231526560008201527f63656976657220696d706c656d656e7465720000000000000000000000000000602082015250565b6000612e03603283611db6565b9150612e0e82612da7565b604082019050919050565b60006020820190508181036000830152612e3281612df6565b9050919050565b7f4e487b7100000000000000000000000000000000000000000000000000000000600052601260045260246000fd5b600081519050919050565b600082825260208201905092915050565b6000612e8f82612e68565b612e998185612e73565b9350612ea9818560208601611dc7565b612eb281611df1565b840191505092915050565b6000608082019050612ed26000830187611ef2565b612edf6020830186611ef2565b612eec6040830185612186565b8181036060830152612efe8184612e84565b905095945050505050565b600081519050612f1881611d1c565b92915050565b600060208284031215612f3457612f33611ce6565b5b6000612f4284828501612f09565b9150509291505056fea26469706673582212200c19a31e42b931889b8b1f1bb3d54f236e9bc9ede895bbb74d40243c5c302ea464736f6c63430008130033",
    "immutableReferences": {},
    "source": "// SPDX-License-Identifier: MIT\r\npragma solidity ^0.8.4;\r\n\r\nimport \"@openzeppelin/contracts/token/ERC721/ERC721.sol\";\r\nimport \"@openzeppelin/contracts/access/Ownable.sol\";\r\nimport \"@openzeppelin/contracts/utils/Counters.sol\";\r\n\r\ncontract MyNFT is ERC721, Ownable {\r\n    using Counters for Counters.Counter;\r\n    Counters.Counter private _tokenIds;\r\n    uint256 private _mintingPrice;\r\n\r\n    // Add the base URI as a state variable\r\n    string private _baseTokenURI;\r\n\r\n    constructor(uint256 mintingPrice, string memory baseTokenURI) ERC721(\"MyNFT\", \"MNFT\") {\r\n        _mintingPrice = mintingPrice;\r\n        _baseTokenURI = baseTokenURI;\r\n    }\r\n\r\n    function mintNFT(address recipient) public payable returns (uint256) {\r\n        require(msg.value >= _mintingPrice, \"Insufficient payment for minting\");\r\n\r\n        _tokenIds.increment();\r\n        uint256 newItemId = _tokenIds.current();\r\n        _mint(recipient, newItemId);\r\n\r\n        if (msg.value > _mintingPrice) {\r\n            // Refund excess payment\r\n            payable(msg.sender).transfer(msg.value - _mintingPrice);\r\n        }\r\n\r\n        return newItemId;\r\n    }\r\n\r\n    function getMintingPrice() public view returns (uint256) {\r\n        return _mintingPrice;\r\n    }\r\n\r\n    function setMintingPrice(uint256 newPrice) public onlyOwner {\r\n        _mintingPrice = newPrice;\r\n    }\r\n\r\n    // Override the _baseURI() function\r\n    function _baseURI() internal view virtual override returns (string memory) {\r\n        return _baseTokenURI;\r\n    }\r\n\r\n    // Function to update the base URI\r\n    function setBaseTokenURI(string memory baseTokenURI) public onlyOwner {\r\n        _baseTokenURI = baseTokenURI;\r\n    }\r\n\r\n    function withdraw() public onlyOwner {\r\n        payable(owner()).transfer(address(this).balance);\r\n    }\r\n}",
    "sourcePath": "C:\\Users\\doubl\\OneDrive\\Desktop\\NFT-Minting\\Smart-Contracts\\contracts\\bsc\\MyNFT.sol",
    "compiler": {
        "name": "solc",
        "version": "0.8.19+commit.7dd6d404.Emscripten.clang"
    },
    "schemaVersion": "3.4.13",
    "updatedAt": "2023-05-07T07:11:10.973Z",
    "networkType": "ethereum",
    "devdoc": {
        "events": {
            "Approval(address,address,uint256)": {
                "details": "Emitted when `owner` enables `approved` to manage the `tokenId` token."
            },
            "ApprovalForAll(address,address,bool)": {
                "details": "Emitted when `owner` enables or disables (`approved`) `operator` to manage all of its assets."
            },
            "Transfer(address,address,uint256)": {
                "details": "Emitted when `tokenId` token is transferred from `from` to `to`."
            }
        },
        "kind": "dev",
        "methods": {
            "approve(address,uint256)": {
                "details": "See {IERC721-approve}."
            },
            "balanceOf(address)": {
                "details": "See {IERC721-balanceOf}."
            },
            "getApproved(uint256)": {
                "details": "See {IERC721-getApproved}."
            },
            "isApprovedForAll(address,address)": {
                "details": "See {IERC721-isApprovedForAll}."
            },
            "name()": {
                "details": "See {IERC721Metadata-name}."
            },
            "owner()": {
                "details": "Returns the address of the current owner."
            },
            "ownerOf(uint256)": {
                "details": "See {IERC721-ownerOf}."
            },
            "renounceOwnership()": {
                "details": "Leaves the contract without owner. It will not be possible to call `onlyOwner` functions anymore. Can only be called by the current owner. NOTE: Renouncing ownership will leave the contract without an owner, thereby removing any functionality that is only available to the owner."
            },
            "safeTransferFrom(address,address,uint256)": {
                "details": "See {IERC721-safeTransferFrom}."
            },
            "safeTransferFrom(address,address,uint256,bytes)": {
                "details": "See {IERC721-safeTransferFrom}."
            },
            "setApprovalForAll(address,bool)": {
                "details": "See {IERC721-setApprovalForAll}."
            },
            "supportsInterface(bytes4)": {
                "details": "See {IERC165-supportsInterface}."
            },
            "symbol()": {
                "details": "See {IERC721Metadata-symbol}."
            },
            "tokenURI(uint256)": {
                "details": "See {IERC721Metadata-tokenURI}."
            },
            "transferFrom(address,address,uint256)": {
                "details": "See {IERC721-transferFrom}."
            },
            "transferOwnership(address)": {
                "details": "Transfers ownership of the contract to a new account (`newOwner`). Can only be called by the current owner."
            }
        },
        "version": 1
    },
    "userdoc": {
        "kind": "user",
        "methods": {},
        "version": 1
    },
    "db": {
        "callBytecode": {
            "id": "0x1e2e98ceec189aca5b8c746ae595a51bfae85c788c536e73ad87a6c71962713b"
        },
        "createBytecode": {
            "id": "0x4077cf9d2cb34ce193a6b154ca013630cc99db97829152cbd5015454261bf890"
        },
        "contract": {
            "id": "0x4e1145098d2a259d377b6c8be75ec686fad5d0eed05d4a936d5a47aedbe7520b"
        }
    }
}